{"abi":[{"anonymous":false,"inputs":[{"indexed":false,"internalType":"uint256","name":"oldFeeRate","type":"uint256"},{"indexed":false,"internalType":"uint256","name":"newFeeRate","type":"uint256"}],"name":"FeeRateUpdated","type":"event"},{"anonymous":false,"inputs":[{"indexed":true,"internalType":"bytes16","name":"policyId","type":"bytes16"},{"indexed":true,"internalType":"address","name":"sponsor","type":"address"},{"indexed":true,"internalType":"address","name":"owner","type":"address"},{"indexed":false,"internalType":"uint16","name":"size","type":"uint16"},{"indexed":false,"internalType":"uint32","name":"startTimestamp","type":"uint32"},{"indexed":false,"internalType":"uint32","name":"endTimestamp","type":"uint32"},{"indexed":false,"internalType":"uint256","name":"cost","type":"uint256"}],"name":"PolicyCreated","type":"event"},{"anonymous":false,"inputs":[{"indexed":true,"internalType":"bytes32","name":"role","type":"bytes32"},{"indexed":true,"internalType":"bytes32","name":"previousAdminRole","type":"bytes32"},{"indexed":true,"internalType":"bytes32","name":"newAdminRole","type":"bytes32"}],"name":"RoleAdminChanged","type":"event"},{"anonymous":false,"inputs":[{"indexed":true,"internalType":"bytes32","name":"role","type":"bytes32"},{"indexed":true,"internalType":"address","name":"account","type":"address"},{"indexed":true,"internalType":"address","name":"sender","type":"address"}],"name":"RoleGranted","type":"event"},{"anonymous":false,"inputs":[{"indexed":true,"internalType":"bytes32","name":"role","type":"bytes32"},{"indexed":true,"internalType":"address","name":"account","type":"address"},{"indexed":true,"internalType":"address","name":"sender","type":"address"}],"name":"RoleRevoked","type":"event"},{"inputs":[],"name":"DEFAULT_ADMIN_ROLE","outputs":[{"internalType":"bytes32","name":"","type":"bytes32"}],"stateMutability":"view","type":"function"},{"inputs":[],"name":"SET_RATE_ROLE","outputs":[{"internalType":"bytes32","name":"","type":"bytes32"}],"stateMutability":"view","type":"function"},{"inputs":[],"name":"WITHDRAW_ROLE","outputs":[{"internalType":"bytes32","name":"","type":"bytes32"}],"stateMutability":"view","type":"function"},{"inputs":[{"internalType":"bytes16","name":"_policyId","type":"bytes16"},{"internalType":"address","name":"_policyOwner","type":"address"},{"internalType":"uint16","name":"_size","type":"uint16"},{"internalType":"uint32","name":"_startTimestamp","type":"uint32"},{"internalType":"uint32","name":"_endTimestamp","type":"uint32"}],"name":"createPolicy","outputs":[],"stateMutability":"payable","type":"function"},{"inputs":[],"name":"feeRate","outputs":[{"internalType":"uint256","name":"","type":"uint256"}],"stateMutability":"view","type":"function"},{"inputs":[{"internalType":"bytes16","name":"_policyID","type":"bytes16"}],"name":"getPolicy","outputs":[{"components":[{"internalType":"address payable","name":"sponsor","type":"address"},{"internalType":"uint32","name":"startTimestamp","type":"uint32"},{"internalType":"uint32","name":"endTimestamp","type":"uint32"},{"internalType":"uint16","name":"size","type":"uint16"},{"internalType":"address","name":"owner","type":"address"}],"internalType":"struct SubscriptionManager.Policy","name":"","type":"tuple"}],"stateMutability":"view","type":"function"},{"inputs":[{"internalType":"uint16","name":"_size","type":"uint16"},{"internalType":"uint32","name":"_startTimestamp","type":"uint32"},{"internalType":"uint32","name":"_endTimestamp","type":"uint32"}],"name":"getPolicyCost","outputs":[{"internalType":"uint256","name":"","type":"uint256"}],"stateMutability":"view","type":"function"},{"inputs":[{"internalType":"bytes32","name":"role","type":"bytes32"}],"name":"getRoleAdmin","outputs":[{"internalType":"bytes32","name":"","type":"bytes32"}],"stateMutability":"view","type":"function"},{"inputs":[{"internalType":"bytes32","name":"role","type":"bytes32"},{"internalType":"address","name":"account","type":"address"}],"name":"grantRole","outputs":[],"stateMutability":"nonpayable","type":"function"},{"inputs":[{"internalType":"bytes32","name":"role","type":"bytes32"},{"internalType":"address","name":"account","type":"address"}],"name":"hasRole","outputs":[{"internalType":"bool","name":"","type":"bool"}],"stateMutability":"view","type":"function"},{"inputs":[{"internalType":"uint256","name":"_feeRate","type":"uint256"}],"name":"initialize","outputs":[],"stateMutability":"nonpayable","type":"function"},{"inputs":[{"internalType":"bytes16","name":"_policyID","type":"bytes16"}],"name":"isPolicyActive","outputs":[{"internalType":"bool","name":"","type":"bool"}],"stateMutability":"view","type":"function"},{"inputs":[{"internalType":"bytes32","name":"role","type":"bytes32"},{"internalType":"address","name":"account","type":"address"}],"name":"renounceRole","outputs":[],"stateMutability":"nonpayable","type":"function"},{"inputs":[{"internalType":"bytes32","name":"role","type":"bytes32"},{"internalType":"address","name":"account","type":"address"}],"name":"revokeRole","outputs":[],"stateMutability":"nonpayable","type":"function"},{"inputs":[{"internalType":"uint256","name":"_ratePerSecond","type":"uint256"}],"name":"setFeeRate","outputs":[],"stateMutability":"nonpayable","type":"function"},{"inputs":[{"internalType":"bytes4","name":"interfaceId","type":"bytes4"}],"name":"supportsInterface","outputs":[{"internalType":"bool","name":"","type":"bool"}],"stateMutability":"view","type":"function"},{"inputs":[{"internalType":"address payable","name":"recipient","type":"address"}],"name":"sweep","outputs":[],"stateMutability":"nonpayable","type":"function"}],"bytecode":"608060405234801561001057600080fd5b506111bc806100206000396000f3fe6080604052600436106100fe5760003560e01c806358db2a7211610095578063978bbdb911610064578063978bbdb9146103e0578063a217fddf146103f6578063d547741f1461040b578063e02023a11461042b578063fe4b84df1461045f57600080fd5b806358db2a721461032557806358f70858146103455780637ef3c6d51461037957806391d14854146103c057600080fd5b80632f2ff15d116100d15780632f2ff15d146102b257806336568abe146102d257806345596e2e146102f25780634f0040411461031257600080fd5b806301681a621461010357806301ffc9a714610125578063248a9ca31461015a5780632c81516114610198575b600080fd5b34801561010f57600080fd5b5061012361011e366004610e65565b61047f565b005b34801561013157600080fd5b50610145610140366004610e82565b61054a565b60405190151581526020015b60405180910390f35b34801561016657600080fd5b5061018a610175366004610eac565b60009081526065602052604090206001015490565b604051908152602001610151565b3480156101a457600080fd5b506102576101b3366004610ee2565b6040805160a081018252600080825260208201819052918101829052606081018290526080810191909152506001600160801b031916600090815260986020908152604091829020825160a08101845281546001600160a01b038082168352600160a01b820463ffffffff90811695840195909552600160c01b820490941694820194909452600160e01b90930461ffff1660608401526001015416608082015290565b604051610151919081516001600160a01b03908116825260208084015163ffffffff908116918401919091526040808501519091169083015260608084015161ffff1690830152608092830151169181019190915260a00190565b3480156102be57600080fd5b506101236102cd366004610efd565b610581565b3480156102de57600080fd5b506101236102ed366004610efd565b6105ac565b3480156102fe57600080fd5b5061012361030d366004610eac565b61062a565b610123610320366004610f53565b61065e565b34801561033157600080fd5b5061018a610340366004610fba565b610723565b34801561035157600080fd5b5061018a7f637ca263f44c0a7e4a3b057e26c82c5667c084aa950864a2916355c481f6a09781565b34801561038557600080fd5b50610145610394366004610ee2565b6001600160801b03191660009081526098602052604090205442600160c01b90910463ffffffff161190565b3480156103cc57600080fd5b506101456103db366004610efd565b6107f3565b3480156103ec57600080fd5b5061018a60975481565b34801561040257600080fd5b5061018a600081565b34801561041757600080fd5b50610123610426366004610efd565b61081e565b34801561043757600080fd5b5061018a7fc1f0c13d12a4ca09aada5725e24c49160e8f198a4ca0d2bd4dafc9c5c12e6a3581565b34801561046b57600080fd5b5061012361047a366004610eac565b610844565b7fc1f0c13d12a4ca09aada5725e24c49160e8f198a4ca0d2bd4dafc9c5c12e6a356104aa8133610965565b60405147906000906001600160a01b0385169083908381818185875af1925050503d80600081146104f7576040519150601f19603f3d011682016040523d82523d6000602084013e6104fc565b606091505b50509050806105445760405162461bcd60e51b815260206004820152600f60248201526e2330b4b632b2103a3930b739b332b960891b60448201526064015b60405180910390fd5b50505050565b60006001600160e01b03198216637965db0b60e01b148061057b57506301ffc9a760e01b6001600160e01b03198316145b92915050565b60008281526065602052604090206001015461059d8133610965565b6105a783836109c9565b505050565b6001600160a01b038116331461061c5760405162461bcd60e51b815260206004820152602f60248201527f416363657373436f6e74726f6c3a2063616e206f6e6c792072656e6f756e636560448201526e103937b632b9903337b91039b2b63360891b606482015260840161053b565b6106268282610a4f565b5050565b7f637ca263f44c0a7e4a3b057e26c82c5667c084aa950864a2916355c481f6a0976106558133610965565b61062682610ab6565b8063ffffffff168263ffffffff1610801561067e57508063ffffffff1642105b6106bf5760405162461bcd60e51b8152602060048201526012602482015271496e76616c69642074696d657374616d707360701b604482015260640161053b565b6106ca838383610723565b341461070e5760405162461bcd60e51b8152602060048201526013602482015272125b9d985b1a59081c1bdb1a58de4818dbdcdd606a1b604482015260640161053b565b61071b8585858585610afb565b505050505050565b6000806107308484611013565b905060008163ffffffff161161077d5760405162461bcd60e51b8152602060048201526012602482015271496e76616c69642074696d657374616d707360701b604482015260640161053b565b60008561ffff16116107c75760405162461bcd60e51b8152602060048201526013602482015272496e76616c696420706f6c6963792073697a6560681b604482015260640161053b565b8063ffffffff168561ffff166097546107e09190611038565b6107ea9190611038565b95945050505050565b60009182526065602090815260408084206001600160a01b0393909316845291905290205460ff1690565b60008281526065602052604090206001015461083a8133610965565b6105a78383610a4f565b600054610100900460ff1661085f5760005460ff1615610863565b303b155b6108c65760405162461bcd60e51b815260206004820152602e60248201527f496e697469616c697a61626c653a20636f6e747261637420697320616c72656160448201526d191e481a5b9a5d1a585b1a5e995960921b606482015260840161053b565b600054610100900460ff161580156108e8576000805461ffff19166101011790555b6108f182610ab6565b61091b7f637ca263f44c0a7e4a3b057e26c82c5667c084aa950864a2916355c481f6a09733610ca0565b6109457fc1f0c13d12a4ca09aada5725e24c49160e8f198a4ca0d2bd4dafc9c5c12e6a3533610ca0565b610950600033610ca0565b8015610626576000805461ff00191690555050565b61096f82826107f3565b61062657610987816001600160a01b03166014610caa565b610992836020610caa565b6040516020016109a3929190611083565b60408051601f198184030181529082905262461bcd60e51b825261053b916004016110f8565b6109d382826107f3565b6106265760008281526065602090815260408083206001600160a01b03851684529091529020805460ff19166001179055610a0b3390565b6001600160a01b0316816001600160a01b0316837f2f8788117e7eff1d82e926ec794901d17c78024a50270940304540a733656f0d60405160405180910390a45050565b610a5982826107f3565b156106265760008281526065602090815260408083206001600160a01b0385168085529252808320805460ff1916905551339285917ff6391f5c32d9c69d2a47ea670b442974b53935d1edc7fd64eb21e047a839171b9190a45050565b609780549082905560408051828152602081018490527f14914da2bf76024616fbe1859783fcd4dbddcb179b1f3a854949fbf920dcb957910160405180910390a15050565b6001600160801b031985166000908152609860205260409020805442600160c01b90910463ffffffff1610610b725760405162461bcd60e51b815260206004820152601a60248201527f506f6c6963792069732063757272656e746c7920616374697665000000000000604482015260640161053b565b805461ffff8516600160e01b0261ffff60e01b1963ffffffff858116600160c01b029190911665ffffffffffff60c01b19918716600160a01b0263ffffffff60a01b19339081166001600160c01b0319909616959095171791909116171782556001600160a01b03861614801590610bf257506001600160a01b03851615155b15610c15576001810180546001600160a01b0319166001600160a01b0387161790555b6001600160a01b03851615610c2a5784610c2c565b335b6040805161ffff8716815263ffffffff868116602083015285168183015234606082015290516001600160a01b03929092169133916001600160801b03198a16917f3e7e513ddaf550a2b9b8c400d5a2428f924d4aae6d8de14c1e2c42e8431fca159181900360800190a495945050505050565b61062682826109c9565b60606000610cb9836002611038565b610cc490600261112b565b67ffffffffffffffff811115610cdc57610cdc611143565b6040519080825280601f01601f191660200182016040528015610d06576020820181803683370190505b509050600360fc1b81600081518110610d2157610d21611159565b60200101906001600160f81b031916908160001a905350600f60fb1b81600181518110610d5057610d50611159565b60200101906001600160f81b031916908160001a9053506000610d74846002611038565b610d7f90600161112b565b90505b6001811115610df7576f181899199a1a9b1b9c1cb0b131b232b360811b85600f1660108110610db357610db3611159565b1a60f81b828281518110610dc957610dc9611159565b60200101906001600160f81b031916908160001a90535060049490941c93610df08161116f565b9050610d82565b508315610e465760405162461bcd60e51b815260206004820181905260248201527f537472696e67733a20686578206c656e67746820696e73756666696369656e74604482015260640161053b565b9392505050565b6001600160a01b0381168114610e6257600080fd5b50565b600060208284031215610e7757600080fd5b8135610e4681610e4d565b600060208284031215610e9457600080fd5b81356001600160e01b031981168114610e4657600080fd5b600060208284031215610ebe57600080fd5b5035919050565b80356001600160801b031981168114610edd57600080fd5b919050565b600060208284031215610ef457600080fd5b610e4682610ec5565b60008060408385031215610f1057600080fd5b823591506020830135610f2281610e4d565b809150509250929050565b803561ffff81168114610edd57600080fd5b803563ffffffff81168114610edd57600080fd5b600080600080600060a08688031215610f6b57600080fd5b610f7486610ec5565b94506020860135610f8481610e4d565b9350610f9260408701610f2d565b9250610fa060608701610f3f565b9150610fae60808701610f3f565b90509295509295909350565b600080600060608486031215610fcf57600080fd5b610fd884610f2d565b9250610fe660208501610f3f565b9150610ff460408501610f3f565b90509250925092565b634e487b7160e01b600052601160045260246000fd5b600063ffffffff8381169083168181101561103057611030610ffd565b039392505050565b600081600019048311821515161561105257611052610ffd565b500290565b60005b8381101561107257818101518382015260200161105a565b838111156105445750506000910152565b7f416363657373436f6e74726f6c3a206163636f756e74200000000000000000008152600083516110bb816017850160208801611057565b7001034b99036b4b9b9b4b733903937b6329607d1b60179184019182015283516110ec816028840160208801611057565b01602801949350505050565b6020815260008251806020840152611117816040850160208701611057565b601f01601f19169190910160400192915050565b6000821982111561113e5761113e610ffd565b500190565b634e487b7160e01b600052604160045260246000fd5b634e487b7160e01b600052603260045260246000fd5b60008161117e5761117e610ffd565b50600019019056fea2646970667358221220359dbf224e3b5aa876c04e113a602cb3a73e30d3a5cc85013f5da9543719caa764736f6c634300080a0033","bytecodeSha1":"9f5f8ed36f38b50e397785df52a4d99462b84bc8","compiler":{"evm_version":"istanbul","optimizer":{"enabled":true,"runs":200},"version":"0.8.10+commit.fc410830"},"contractName":"SubscriptionManager","language":"Solidity","natspec":{"kind":"dev","methods":{"getRoleAdmin(bytes32)":{"details":"Returns the admin role that controls `role`. See {grantRole} and {revokeRole}. To change a role's admin, use {_setRoleAdmin}."},"grantRole(bytes32,address)":{"details":"Grants `role` to `account`. If `account` had not been already granted `role`, emits a {RoleGranted} event. Requirements: - the caller must have ``role``'s admin role."},"hasRole(bytes32,address)":{"details":"Returns `true` if `account` has been granted `role`."},"renounceRole(bytes32,address)":{"details":"Revokes `role` from the calling account. Roles are often managed via {grantRole} and {revokeRole}: this function's purpose is to provide a mechanism for accounts to lose their privileges if they are compromised (such as when a trusted device is misplaced). If the calling account had been revoked `role`, emits a {RoleRevoked} event. Requirements: - the caller must be `account`."},"revokeRole(bytes32,address)":{"details":"Revokes `role` from `account`. If `account` had been granted `role`, emits a {RoleRevoked} event. Requirements: - the caller must have ``role``'s admin role."},"supportsInterface(bytes4)":{"details":"See {IERC165-supportsInterface}."}},"version":1},"opcodes":"PUSH1 0x80 PUSH1 0x40 MSTORE PUSH1 0x4 CALLDATASIZE LT PUSH2 0xFE JUMPI PUSH1 0x0 CALLDATALOAD PUSH1 0xE0 SHR DUP1 PUSH4 0x58DB2A72 GT PUSH2 0x95 JUMPI DUP1 PUSH4 0x978BBDB9 GT PUSH2 0x64 JUMPI DUP1 PUSH4 0x978BBDB9 EQ PUSH2 0x3E0 JUMPI DUP1 PUSH4 0xA217FDDF EQ PUSH2 0x3F6 JUMPI DUP1 PUSH4 0xD547741F EQ PUSH2 0x40B JUMPI DUP1 PUSH4 0xE02023A1 EQ PUSH2 0x42B JUMPI DUP1 PUSH4 0xFE4B84DF EQ PUSH2 0x45F JUMPI PUSH1 0x0 DUP1 REVERT JUMPDEST DUP1 PUSH4 0x58DB2A72 EQ PUSH2 0x325 JUMPI DUP1 PUSH4 0x58F70858 EQ PUSH2 0x345 JUMPI DUP1 PUSH4 0x7EF3C6D5 EQ PUSH2 0x379 JUMPI DUP1 PUSH4 0x91D14854 EQ PUSH2 0x3C0 JUMPI PUSH1 0x0 DUP1 REVERT JUMPDEST DUP1 PUSH4 0x2F2FF15D GT PUSH2 0xD1 JUMPI DUP1 PUSH4 0x2F2FF15D EQ PUSH2 0x2B2 JUMPI DUP1 PUSH4 0x36568ABE EQ PUSH2 0x2D2 JUMPI DUP1 PUSH4 0x45596E2E EQ PUSH2 0x2F2 JUMPI DUP1 PUSH4 0x4F004041 EQ PUSH2 0x312 JUMPI PUSH1 0x0 DUP1 REVERT JUMPDEST DUP1 PUSH4 0x1681A62 EQ PUSH2 0x103 JUMPI DUP1 PUSH4 0x1FFC9A7 EQ PUSH2 0x125 JUMPI DUP1 PUSH4 0x248A9CA3 EQ PUSH2 0x15A JUMPI DUP1 PUSH4 0x2C815161 EQ PUSH2 0x198 JUMPI JUMPDEST PUSH1 0x0 DUP1 REVERT JUMPDEST CALLVALUE DUP1 ISZERO PUSH2 0x10F JUMPI PUSH1 0x0 DUP1 REVERT JUMPDEST POP PUSH2 0x123 PUSH2 0x11E CALLDATASIZE PUSH1 0x4 PUSH2 0xE65 JUMP JUMPDEST PUSH2 0x47F JUMP JUMPDEST STOP JUMPDEST CALLVALUE DUP1 ISZERO PUSH2 0x131 JUMPI PUSH1 0x0 DUP1 REVERT JUMPDEST POP PUSH2 0x145 PUSH2 0x140 CALLDATASIZE PUSH1 0x4 PUSH2 0xE82 JUMP JUMPDEST PUSH2 0x54A JUMP JUMPDEST PUSH1 0x40 MLOAD SWAP1 ISZERO ISZERO DUP2 MSTORE PUSH1 0x20 ADD JUMPDEST PUSH1 0x40 MLOAD DUP1 SWAP2 SUB SWAP1 RETURN JUMPDEST CALLVALUE DUP1 ISZERO PUSH2 0x166 JUMPI PUSH1 0x0 DUP1 REVERT JUMPDEST POP PUSH2 0x18A PUSH2 0x175 CALLDATASIZE PUSH1 0x4 PUSH2 0xEAC JUMP JUMPDEST PUSH1 0x0 SWAP1 DUP2 MSTORE PUSH1 0x65 PUSH1 0x20 MSTORE PUSH1 0x40 SWAP1 KECCAK256 PUSH1 0x1 ADD SLOAD SWAP1 JUMP JUMPDEST PUSH1 0x40 MLOAD SWAP1 DUP2 MSTORE PUSH1 0x20 ADD PUSH2 0x151 JUMP JUMPDEST CALLVALUE DUP1 ISZERO PUSH2 0x1A4 JUMPI PUSH1 0x0 DUP1 REVERT JUMPDEST POP PUSH2 0x257 PUSH2 0x1B3 CALLDATASIZE PUSH1 0x4 PUSH2 0xEE2 JUMP JUMPDEST PUSH1 0x40 DUP1 MLOAD PUSH1 0xA0 DUP2 ADD DUP3 MSTORE PUSH1 0x0 DUP1 DUP3 MSTORE PUSH1 0x20 DUP3 ADD DUP2 SWAP1 MSTORE SWAP2 DUP2 ADD DUP3 SWAP1 MSTORE PUSH1 0x60 DUP2 ADD DUP3 SWAP1 MSTORE PUSH1 0x80 DUP2 ADD SWAP2 SWAP1 SWAP2 MSTORE POP PUSH1 0x1 PUSH1 0x1 PUSH1 0x80 SHL SUB NOT AND PUSH1 0x0 SWAP1 DUP2 MSTORE PUSH1 0x98 PUSH1 0x20 SWAP1 DUP2 MSTORE PUSH1 0x40 SWAP2 DUP3 SWAP1 KECCAK256 DUP3 MLOAD PUSH1 0xA0 DUP2 ADD DUP5 MSTORE DUP2 SLOAD PUSH1 0x1 PUSH1 0x1 PUSH1 0xA0 SHL SUB DUP1 DUP3 AND DUP4 MSTORE PUSH1 0x1 PUSH1 0xA0 SHL DUP3 DIV PUSH4 0xFFFFFFFF SWAP1 DUP2 AND SWAP6 DUP5 ADD SWAP6 SWAP1 SWAP6 MSTORE PUSH1 0x1 PUSH1 0xC0 SHL DUP3 DIV SWAP1 SWAP5 AND SWAP5 DUP3 ADD SWAP5 SWAP1 SWAP5 MSTORE PUSH1 0x1 PUSH1 0xE0 SHL SWAP1 SWAP4 DIV PUSH2 0xFFFF AND PUSH1 0x60 DUP5 ADD MSTORE PUSH1 0x1 ADD SLOAD AND PUSH1 0x80 DUP3 ADD MSTORE SWAP1 JUMP JUMPDEST PUSH1 0x40 MLOAD PUSH2 0x151 SWAP2 SWAP1 DUP2 MLOAD PUSH1 0x1 PUSH1 0x1 PUSH1 0xA0 SHL SUB SWAP1 DUP2 AND DUP3 MSTORE PUSH1 0x20 DUP1 DUP5 ADD MLOAD PUSH4 0xFFFFFFFF SWAP1 DUP2 AND SWAP2 DUP5 ADD SWAP2 SWAP1 SWAP2 MSTORE PUSH1 0x40 DUP1 DUP6 ADD MLOAD SWAP1 SWAP2 AND SWAP1 DUP4 ADD MSTORE PUSH1 0x60 DUP1 DUP5 ADD MLOAD PUSH2 0xFFFF AND SWAP1 DUP4 ADD MSTORE PUSH1 0x80 SWAP3 DUP4 ADD MLOAD AND SWAP2 DUP2 ADD SWAP2 SWAP1 SWAP2 MSTORE PUSH1 0xA0 ADD SWAP1 JUMP JUMPDEST CALLVALUE DUP1 ISZERO PUSH2 0x2BE JUMPI PUSH1 0x0 DUP1 REVERT JUMPDEST POP PUSH2 0x123 PUSH2 0x2CD CALLDATASIZE PUSH1 0x4 PUSH2 0xEFD JUMP JUMPDEST PUSH2 0x581 JUMP JUMPDEST CALLVALUE DUP1 ISZERO PUSH2 0x2DE JUMPI PUSH1 0x0 DUP1 REVERT JUMPDEST POP PUSH2 0x123 PUSH2 0x2ED CALLDATASIZE PUSH1 0x4 PUSH2 0xEFD JUMP JUMPDEST PUSH2 0x5AC JUMP JUMPDEST CALLVALUE DUP1 ISZERO PUSH2 0x2FE JUMPI PUSH1 0x0 DUP1 REVERT JUMPDEST POP PUSH2 0x123 PUSH2 0x30D CALLDATASIZE PUSH1 0x4 PUSH2 0xEAC JUMP JUMPDEST PUSH2 0x62A JUMP JUMPDEST PUSH2 0x123 PUSH2 0x320 CALLDATASIZE PUSH1 0x4 PUSH2 0xF53 JUMP JUMPDEST PUSH2 0x65E JUMP JUMPDEST CALLVALUE DUP1 ISZERO PUSH2 0x331 JUMPI PUSH1 0x0 DUP1 REVERT JUMPDEST POP PUSH2 0x18A PUSH2 0x340 CALLDATASIZE PUSH1 0x4 PUSH2 0xFBA JUMP JUMPDEST PUSH2 0x723 JUMP JUMPDEST CALLVALUE DUP1 ISZERO PUSH2 0x351 JUMPI PUSH1 0x0 DUP1 REVERT JUMPDEST POP PUSH2 0x18A PUSH32 0x637CA263F44C0A7E4A3B057E26C82C5667C084AA950864A2916355C481F6A097 DUP2 JUMP JUMPDEST CALLVALUE DUP1 ISZERO PUSH2 0x385 JUMPI PUSH1 0x0 DUP1 REVERT JUMPDEST POP PUSH2 0x145 PUSH2 0x394 CALLDATASIZE PUSH1 0x4 PUSH2 0xEE2 JUMP JUMPDEST PUSH1 0x1 PUSH1 0x1 PUSH1 0x80 SHL SUB NOT AND PUSH1 0x0 SWAP1 DUP2 MSTORE PUSH1 0x98 PUSH1 0x20 MSTORE PUSH1 0x40 SWAP1 KECCAK256 SLOAD TIMESTAMP PUSH1 0x1 PUSH1 0xC0 SHL SWAP1 SWAP2 DIV PUSH4 0xFFFFFFFF AND GT SWAP1 JUMP JUMPDEST CALLVALUE DUP1 ISZERO PUSH2 0x3CC JUMPI PUSH1 0x0 DUP1 REVERT JUMPDEST POP PUSH2 0x145 PUSH2 0x3DB CALLDATASIZE PUSH1 0x4 PUSH2 0xEFD JUMP JUMPDEST PUSH2 0x7F3 JUMP JUMPDEST CALLVALUE DUP1 ISZERO PUSH2 0x3EC JUMPI PUSH1 0x0 DUP1 REVERT JUMPDEST POP PUSH2 0x18A PUSH1 0x97 SLOAD DUP2 JUMP JUMPDEST CALLVALUE DUP1 ISZERO PUSH2 0x402 JUMPI PUSH1 0x0 DUP1 REVERT JUMPDEST POP PUSH2 0x18A PUSH1 0x0 DUP2 JUMP JUMPDEST CALLVALUE DUP1 ISZERO PUSH2 0x417 JUMPI PUSH1 0x0 DUP1 REVERT JUMPDEST POP PUSH2 0x123 PUSH2 0x426 CALLDATASIZE PUSH1 0x4 PUSH2 0xEFD JUMP JUMPDEST PUSH2 0x81E JUMP JUMPDEST CALLVALUE DUP1 ISZERO PUSH2 0x437 JUMPI PUSH1 0x0 DUP1 REVERT JUMPDEST POP PUSH2 0x18A PUSH32 0xC1F0C13D12A4CA09AADA5725E24C49160E8F198A4CA0D2BD4DAFC9C5C12E6A35 DUP2 JUMP JUMPDEST CALLVALUE DUP1 ISZERO PUSH2 0x46B JUMPI PUSH1 0x0 DUP1 REVERT JUMPDEST POP PUSH2 0x123 PUSH2 0x47A CALLDATASIZE PUSH1 0x4 PUSH2 0xEAC JUMP JUMPDEST PUSH2 0x844 JUMP JUMPDEST PUSH32 0xC1F0C13D12A4CA09AADA5725E24C49160E8F198A4CA0D2BD4DAFC9C5C12E6A35 PUSH2 0x4AA DUP2 CALLER PUSH2 0x965 JUMP JUMPDEST PUSH1 0x40 MLOAD SELFBALANCE SWAP1 PUSH1 0x0 SWAP1 PUSH1 0x1 PUSH1 0x1 PUSH1 0xA0 SHL SUB DUP6 AND SWAP1 DUP4 SWAP1 DUP4 DUP2 DUP2 DUP2 DUP6 DUP8 GAS CALL SWAP3 POP POP POP RETURNDATASIZE DUP1 PUSH1 0x0 DUP2 EQ PUSH2 0x4F7 JUMPI PUSH1 0x40 MLOAD SWAP2 POP PUSH1 0x1F NOT PUSH1 0x3F RETURNDATASIZE ADD AND DUP3 ADD PUSH1 0x40 MSTORE RETURNDATASIZE DUP3 MSTORE RETURNDATASIZE PUSH1 0x0 PUSH1 0x20 DUP5 ADD RETURNDATACOPY PUSH2 0x4FC JUMP JUMPDEST PUSH1 0x60 SWAP2 POP JUMPDEST POP POP SWAP1 POP DUP1 PUSH2 0x544 JUMPI PUSH1 0x40 MLOAD PUSH3 0x461BCD PUSH1 0xE5 SHL DUP2 MSTORE PUSH1 0x20 PUSH1 0x4 DUP3 ADD MSTORE PUSH1 0xF PUSH1 0x24 DUP3 ADD MSTORE PUSH15 0x2330B4B632B2103A3930B739B332B9 PUSH1 0x89 SHL PUSH1 0x44 DUP3 ADD MSTORE PUSH1 0x64 ADD JUMPDEST PUSH1 0x40 MLOAD DUP1 SWAP2 SUB SWAP1 REVERT JUMPDEST POP POP POP POP JUMP JUMPDEST PUSH1 0x0 PUSH1 0x1 PUSH1 0x1 PUSH1 0xE0 SHL SUB NOT DUP3 AND PUSH4 0x7965DB0B PUSH1 0xE0 SHL EQ DUP1 PUSH2 0x57B JUMPI POP PUSH4 0x1FFC9A7 PUSH1 0xE0 SHL PUSH1 0x1 PUSH1 0x1 PUSH1 0xE0 SHL SUB NOT DUP4 AND EQ JUMPDEST SWAP3 SWAP2 POP POP JUMP JUMPDEST PUSH1 0x0 DUP3 DUP2 MSTORE PUSH1 0x65 PUSH1 0x20 MSTORE PUSH1 0x40 SWAP1 KECCAK256 PUSH1 0x1 ADD SLOAD PUSH2 0x59D DUP2 CALLER PUSH2 0x965 JUMP JUMPDEST PUSH2 0x5A7 DUP4 DUP4 PUSH2 0x9C9 JUMP JUMPDEST POP POP POP JUMP JUMPDEST PUSH1 0x1 PUSH1 0x1 PUSH1 0xA0 SHL SUB DUP2 AND CALLER EQ PUSH2 0x61C JUMPI PUSH1 0x40 MLOAD PUSH3 0x461BCD PUSH1 0xE5 SHL DUP2 MSTORE PUSH1 0x20 PUSH1 0x4 DUP3 ADD MSTORE PUSH1 0x2F PUSH1 0x24 DUP3 ADD MSTORE PUSH32 0x416363657373436F6E74726F6C3A2063616E206F6E6C792072656E6F756E6365 PUSH1 0x44 DUP3 ADD MSTORE PUSH15 0x103937B632B9903337B91039B2B633 PUSH1 0x89 SHL PUSH1 0x64 DUP3 ADD MSTORE PUSH1 0x84 ADD PUSH2 0x53B JUMP JUMPDEST PUSH2 0x626 DUP3 DUP3 PUSH2 0xA4F JUMP JUMPDEST POP POP JUMP JUMPDEST PUSH32 0x637CA263F44C0A7E4A3B057E26C82C5667C084AA950864A2916355C481F6A097 PUSH2 0x655 DUP2 CALLER PUSH2 0x965 JUMP JUMPDEST PUSH2 0x626 DUP3 PUSH2 0xAB6 JUMP JUMPDEST DUP1 PUSH4 0xFFFFFFFF AND DUP3 PUSH4 0xFFFFFFFF AND LT DUP1 ISZERO PUSH2 0x67E JUMPI POP DUP1 PUSH4 0xFFFFFFFF AND TIMESTAMP LT JUMPDEST PUSH2 0x6BF JUMPI PUSH1 0x40 MLOAD PUSH3 0x461BCD PUSH1 0xE5 SHL DUP2 MSTORE PUSH1 0x20 PUSH1 0x4 DUP3 ADD MSTORE PUSH1 0x12 PUSH1 0x24 DUP3 ADD MSTORE PUSH18 0x496E76616C69642074696D657374616D7073 PUSH1 0x70 SHL PUSH1 0x44 DUP3 ADD MSTORE PUSH1 0x64 ADD PUSH2 0x53B JUMP JUMPDEST PUSH2 0x6CA DUP4 DUP4 DUP4 PUSH2 0x723 JUMP JUMPDEST CALLVALUE EQ PUSH2 0x70E JUMPI PUSH1 0x40 MLOAD PUSH3 0x461BCD PUSH1 0xE5 SHL DUP2 MSTORE PUSH1 0x20 PUSH1 0x4 DUP3 ADD MSTORE PUSH1 0x13 PUSH1 0x24 DUP3 ADD MSTORE PUSH19 0x125B9D985B1A59081C1BDB1A58DE4818DBDCDD PUSH1 0x6A SHL PUSH1 0x44 DUP3 ADD MSTORE PUSH1 0x64 ADD PUSH2 0x53B JUMP JUMPDEST PUSH2 0x71B DUP6 DUP6 DUP6 DUP6 DUP6 PUSH2 0xAFB JUMP JUMPDEST POP POP POP POP POP POP JUMP JUMPDEST PUSH1 0x0 DUP1 PUSH2 0x730 DUP5 DUP5 PUSH2 0x1013 JUMP JUMPDEST SWAP1 POP PUSH1 0x0 DUP2 PUSH4 0xFFFFFFFF AND GT PUSH2 0x77D JUMPI PUSH1 0x40 MLOAD PUSH3 0x461BCD PUSH1 0xE5 SHL DUP2 MSTORE PUSH1 0x20 PUSH1 0x4 DUP3 ADD MSTORE PUSH1 0x12 PUSH1 0x24 DUP3 ADD MSTORE PUSH18 0x496E76616C69642074696D657374616D7073 PUSH1 0x70 SHL PUSH1 0x44 DUP3 ADD MSTORE PUSH1 0x64 ADD PUSH2 0x53B JUMP JUMPDEST PUSH1 0x0 DUP6 PUSH2 0xFFFF AND GT PUSH2 0x7C7 JUMPI PUSH1 0x40 MLOAD PUSH3 0x461BCD PUSH1 0xE5 SHL DUP2 MSTORE PUSH1 0x20 PUSH1 0x4 DUP3 ADD MSTORE PUSH1 0x13 PUSH1 0x24 DUP3 ADD MSTORE PUSH19 0x496E76616C696420706F6C6963792073697A65 PUSH1 0x68 SHL PUSH1 0x44 DUP3 ADD MSTORE PUSH1 0x64 ADD PUSH2 0x53B JUMP JUMPDEST DUP1 PUSH4 0xFFFFFFFF AND DUP6 PUSH2 0xFFFF AND PUSH1 0x97 SLOAD PUSH2 0x7E0 SWAP2 SWAP1 PUSH2 0x1038 JUMP JUMPDEST PUSH2 0x7EA SWAP2 SWAP1 PUSH2 0x1038 JUMP JUMPDEST SWAP6 SWAP5 POP POP POP POP POP JUMP JUMPDEST PUSH1 0x0 SWAP2 DUP3 MSTORE PUSH1 0x65 PUSH1 0x20 SWAP1 DUP2 MSTORE PUSH1 0x40 DUP1 DUP5 KECCAK256 PUSH1 0x1 PUSH1 0x1 PUSH1 0xA0 SHL SUB SWAP4 SWAP1 SWAP4 AND DUP5 MSTORE SWAP2 SWAP1 MSTORE SWAP1 KECCAK256 SLOAD PUSH1 0xFF AND SWAP1 JUMP JUMPDEST PUSH1 0x0 DUP3 DUP2 MSTORE PUSH1 0x65 PUSH1 0x20 MSTORE PUSH1 0x40 SWAP1 KECCAK256 PUSH1 0x1 ADD SLOAD PUSH2 0x83A DUP2 CALLER PUSH2 0x965 JUMP JUMPDEST PUSH2 0x5A7 DUP4 DUP4 PUSH2 0xA4F JUMP JUMPDEST PUSH1 0x0 SLOAD PUSH2 0x100 SWAP1 DIV PUSH1 0xFF AND PUSH2 0x85F JUMPI PUSH1 0x0 SLOAD PUSH1 0xFF AND ISZERO PUSH2 0x863 JUMP JUMPDEST ADDRESS EXTCODESIZE ISZERO JUMPDEST PUSH2 0x8C6 JUMPI PUSH1 0x40 MLOAD PUSH3 0x461BCD PUSH1 0xE5 SHL DUP2 MSTORE PUSH1 0x20 PUSH1 0x4 DUP3 ADD MSTORE PUSH1 0x2E PUSH1 0x24 DUP3 ADD MSTORE PUSH32 0x496E697469616C697A61626C653A20636F6E747261637420697320616C726561 PUSH1 0x44 DUP3 ADD MSTORE PUSH14 0x191E481A5B9A5D1A585B1A5E9959 PUSH1 0x92 SHL PUSH1 0x64 DUP3 ADD MSTORE PUSH1 0x84 ADD PUSH2 0x53B JUMP JUMPDEST PUSH1 0x0 SLOAD PUSH2 0x100 SWAP1 DIV PUSH1 0xFF AND ISZERO DUP1 ISZERO PUSH2 0x8E8 JUMPI PUSH1 0x0 DUP1 SLOAD PUSH2 0xFFFF NOT AND PUSH2 0x101 OR SWAP1 SSTORE JUMPDEST PUSH2 0x8F1 DUP3 PUSH2 0xAB6 JUMP JUMPDEST PUSH2 0x91B PUSH32 0x637CA263F44C0A7E4A3B057E26C82C5667C084AA950864A2916355C481F6A097 CALLER PUSH2 0xCA0 JUMP JUMPDEST PUSH2 0x945 PUSH32 0xC1F0C13D12A4CA09AADA5725E24C49160E8F198A4CA0D2BD4DAFC9C5C12E6A35 CALLER PUSH2 0xCA0 JUMP JUMPDEST PUSH2 0x950 PUSH1 0x0 CALLER PUSH2 0xCA0 JUMP JUMPDEST DUP1 ISZERO PUSH2 0x626 JUMPI PUSH1 0x0 DUP1 SLOAD PUSH2 0xFF00 NOT AND SWAP1 SSTORE POP POP JUMP JUMPDEST PUSH2 0x96F DUP3 DUP3 PUSH2 0x7F3 JUMP JUMPDEST PUSH2 0x626 JUMPI PUSH2 0x987 DUP2 PUSH1 0x1 PUSH1 0x1 PUSH1 0xA0 SHL SUB AND PUSH1 0x14 PUSH2 0xCAA JUMP JUMPDEST PUSH2 0x992 DUP4 PUSH1 0x20 PUSH2 0xCAA JUMP JUMPDEST PUSH1 0x40 MLOAD PUSH1 0x20 ADD PUSH2 0x9A3 SWAP3 SWAP2 SWAP1 PUSH2 0x1083 JUMP JUMPDEST PUSH1 0x40 DUP1 MLOAD PUSH1 0x1F NOT DUP2 DUP5 SUB ADD DUP2 MSTORE SWAP1 DUP3 SWAP1 MSTORE PUSH3 0x461BCD PUSH1 0xE5 SHL DUP3 MSTORE PUSH2 0x53B SWAP2 PUSH1 0x4 ADD PUSH2 0x10F8 JUMP JUMPDEST PUSH2 0x9D3 DUP3 DUP3 PUSH2 0x7F3 JUMP JUMPDEST PUSH2 0x626 JUMPI PUSH1 0x0 DUP3 DUP2 MSTORE PUSH1 0x65 PUSH1 0x20 SWAP1 DUP2 MSTORE PUSH1 0x40 DUP1 DUP4 KECCAK256 PUSH1 0x1 PUSH1 0x1 PUSH1 0xA0 SHL SUB DUP6 AND DUP5 MSTORE SWAP1 SWAP2 MSTORE SWAP1 KECCAK256 DUP1 SLOAD PUSH1 0xFF NOT AND PUSH1 0x1 OR SWAP1 SSTORE PUSH2 0xA0B CALLER SWAP1 JUMP JUMPDEST PUSH1 0x1 PUSH1 0x1 PUSH1 0xA0 SHL SUB AND DUP2 PUSH1 0x1 PUSH1 0x1 PUSH1 0xA0 SHL SUB AND DUP4 PUSH32 0x2F8788117E7EFF1D82E926EC794901D17C78024A50270940304540A733656F0D PUSH1 0x40 MLOAD PUSH1 0x40 MLOAD DUP1 SWAP2 SUB SWAP1 LOG4 POP POP JUMP JUMPDEST PUSH2 0xA59 DUP3 DUP3 PUSH2 0x7F3 JUMP JUMPDEST ISZERO PUSH2 0x626 JUMPI PUSH1 0x0 DUP3 DUP2 MSTORE PUSH1 0x65 PUSH1 0x20 SWAP1 DUP2 MSTORE PUSH1 0x40 DUP1 DUP4 KECCAK256 PUSH1 0x1 PUSH1 0x1 PUSH1 0xA0 SHL SUB DUP6 AND DUP1 DUP6 MSTORE SWAP3 MSTORE DUP1 DUP4 KECCAK256 DUP1 SLOAD PUSH1 0xFF NOT AND SWAP1 SSTORE MLOAD CALLER SWAP3 DUP6 SWAP2 PUSH32 0xF6391F5C32D9C69D2A47EA670B442974B53935D1EDC7FD64EB21E047A839171B SWAP2 SWAP1 LOG4 POP POP JUMP JUMPDEST PUSH1 0x97 DUP1 SLOAD SWAP1 DUP3 SWAP1 SSTORE PUSH1 0x40 DUP1 MLOAD DUP3 DUP2 MSTORE PUSH1 0x20 DUP2 ADD DUP5 SWAP1 MSTORE PUSH32 0x14914DA2BF76024616FBE1859783FCD4DBDDCB179B1F3A854949FBF920DCB957 SWAP2 ADD PUSH1 0x40 MLOAD DUP1 SWAP2 SUB SWAP1 LOG1 POP POP JUMP JUMPDEST PUSH1 0x1 PUSH1 0x1 PUSH1 0x80 SHL SUB NOT DUP6 AND PUSH1 0x0 SWAP1 DUP2 MSTORE PUSH1 0x98 PUSH1 0x20 MSTORE PUSH1 0x40 SWAP1 KECCAK256 DUP1 SLOAD TIMESTAMP PUSH1 0x1 PUSH1 0xC0 SHL SWAP1 SWAP2 DIV PUSH4 0xFFFFFFFF AND LT PUSH2 0xB72 JUMPI PUSH1 0x40 MLOAD PUSH3 0x461BCD PUSH1 0xE5 SHL DUP2 MSTORE PUSH1 0x20 PUSH1 0x4 DUP3 ADD MSTORE PUSH1 0x1A PUSH1 0x24 DUP3 ADD MSTORE PUSH32 0x506F6C6963792069732063757272656E746C7920616374697665000000000000 PUSH1 0x44 DUP3 ADD MSTORE PUSH1 0x64 ADD PUSH2 0x53B JUMP JUMPDEST DUP1 SLOAD PUSH2 0xFFFF DUP6 AND PUSH1 0x1 PUSH1 0xE0 SHL MUL PUSH2 0xFFFF PUSH1 0xE0 SHL NOT PUSH4 0xFFFFFFFF DUP6 DUP2 AND PUSH1 0x1 PUSH1 0xC0 SHL MUL SWAP2 SWAP1 SWAP2 AND PUSH6 0xFFFFFFFFFFFF PUSH1 0xC0 SHL NOT SWAP2 DUP8 AND PUSH1 0x1 PUSH1 0xA0 SHL MUL PUSH4 0xFFFFFFFF PUSH1 0xA0 SHL NOT CALLER SWAP1 DUP2 AND PUSH1 0x1 PUSH1 0x1 PUSH1 0xC0 SHL SUB NOT SWAP1 SWAP7 AND SWAP6 SWAP1 SWAP6 OR OR SWAP2 SWAP1 SWAP2 AND OR OR DUP3 SSTORE PUSH1 0x1 PUSH1 0x1 PUSH1 0xA0 SHL SUB DUP7 AND EQ DUP1 ISZERO SWAP1 PUSH2 0xBF2 JUMPI POP PUSH1 0x1 PUSH1 0x1 PUSH1 0xA0 SHL SUB DUP6 AND ISZERO ISZERO JUMPDEST ISZERO PUSH2 0xC15 JUMPI PUSH1 0x1 DUP2 ADD DUP1 SLOAD PUSH1 0x1 PUSH1 0x1 PUSH1 0xA0 SHL SUB NOT AND PUSH1 0x1 PUSH1 0x1 PUSH1 0xA0 SHL SUB DUP8 AND OR SWAP1 SSTORE JUMPDEST PUSH1 0x1 PUSH1 0x1 PUSH1 0xA0 SHL SUB DUP6 AND ISZERO PUSH2 0xC2A JUMPI DUP5 PUSH2 0xC2C JUMP JUMPDEST CALLER JUMPDEST PUSH1 0x40 DUP1 MLOAD PUSH2 0xFFFF DUP8 AND DUP2 MSTORE PUSH4 0xFFFFFFFF DUP7 DUP2 AND PUSH1 0x20 DUP4 ADD MSTORE DUP6 AND DUP2 DUP4 ADD MSTORE CALLVALUE PUSH1 0x60 DUP3 ADD MSTORE SWAP1 MLOAD PUSH1 0x1 PUSH1 0x1 PUSH1 0xA0 SHL SUB SWAP3 SWAP1 SWAP3 AND SWAP2 CALLER SWAP2 PUSH1 0x1 PUSH1 0x1 PUSH1 0x80 SHL SUB NOT DUP11 AND SWAP2 PUSH32 0x3E7E513DDAF550A2B9B8C400D5A2428F924D4AAE6D8DE14C1E2C42E8431FCA15 SWAP2 DUP2 SWAP1 SUB PUSH1 0x80 ADD SWAP1 LOG4 SWAP6 SWAP5 POP POP POP POP POP JUMP JUMPDEST PUSH2 0x626 DUP3 DUP3 PUSH2 0x9C9 JUMP JUMPDEST PUSH1 0x60 PUSH1 0x0 PUSH2 0xCB9 DUP4 PUSH1 0x2 PUSH2 0x1038 JUMP JUMPDEST PUSH2 0xCC4 SWAP1 PUSH1 0x2 PUSH2 0x112B JUMP JUMPDEST PUSH8 0xFFFFFFFFFFFFFFFF DUP2 GT ISZERO PUSH2 0xCDC JUMPI PUSH2 0xCDC PUSH2 0x1143 JUMP JUMPDEST PUSH1 0x40 MLOAD SWAP1 DUP1 DUP3 MSTORE DUP1 PUSH1 0x1F ADD PUSH1 0x1F NOT AND PUSH1 0x20 ADD DUP3 ADD PUSH1 0x40 MSTORE DUP1 ISZERO PUSH2 0xD06 JUMPI PUSH1 0x20 DUP3 ADD DUP2 DUP1 CALLDATASIZE DUP4 CALLDATACOPY ADD SWAP1 POP JUMPDEST POP SWAP1 POP PUSH1 0x3 PUSH1 0xFC SHL DUP2 PUSH1 0x0 DUP2 MLOAD DUP2 LT PUSH2 0xD21 JUMPI PUSH2 0xD21 PUSH2 0x1159 JUMP JUMPDEST PUSH1 0x20 ADD ADD SWAP1 PUSH1 0x1 PUSH1 0x1 PUSH1 0xF8 SHL SUB NOT AND SWAP1 DUP2 PUSH1 0x0 BYTE SWAP1 MSTORE8 POP PUSH1 0xF PUSH1 0xFB SHL DUP2 PUSH1 0x1 DUP2 MLOAD DUP2 LT PUSH2 0xD50 JUMPI PUSH2 0xD50 PUSH2 0x1159 JUMP JUMPDEST PUSH1 0x20 ADD ADD SWAP1 PUSH1 0x1 PUSH1 0x1 PUSH1 0xF8 SHL SUB NOT AND SWAP1 DUP2 PUSH1 0x0 BYTE SWAP1 MSTORE8 POP PUSH1 0x0 PUSH2 0xD74 DUP5 PUSH1 0x2 PUSH2 0x1038 JUMP JUMPDEST PUSH2 0xD7F SWAP1 PUSH1 0x1 PUSH2 0x112B JUMP JUMPDEST SWAP1 POP JUMPDEST PUSH1 0x1 DUP2 GT ISZERO PUSH2 0xDF7 JUMPI PUSH16 0x181899199A1A9B1B9C1CB0B131B232B3 PUSH1 0x81 SHL DUP6 PUSH1 0xF AND PUSH1 0x10 DUP2 LT PUSH2 0xDB3 JUMPI PUSH2 0xDB3 PUSH2 0x1159 JUMP JUMPDEST BYTE PUSH1 0xF8 SHL DUP3 DUP3 DUP2 MLOAD DUP2 LT PUSH2 0xDC9 JUMPI PUSH2 0xDC9 PUSH2 0x1159 JUMP JUMPDEST PUSH1 0x20 ADD ADD SWAP1 PUSH1 0x1 PUSH1 0x1 PUSH1 0xF8 SHL SUB NOT AND SWAP1 DUP2 PUSH1 0x0 BYTE SWAP1 MSTORE8 POP PUSH1 0x4 SWAP5 SWAP1 SWAP5 SHR SWAP4 PUSH2 0xDF0 DUP2 PUSH2 0x116F JUMP JUMPDEST SWAP1 POP PUSH2 0xD82 JUMP JUMPDEST POP DUP4 ISZERO PUSH2 0xE46 JUMPI PUSH1 0x40 MLOAD PUSH3 0x461BCD PUSH1 0xE5 SHL DUP2 MSTORE PUSH1 0x20 PUSH1 0x4 DUP3 ADD DUP2 SWAP1 MSTORE PUSH1 0x24 DUP3 ADD MSTORE PUSH32 0x537472696E67733A20686578206C656E67746820696E73756666696369656E74 PUSH1 0x44 DUP3 ADD MSTORE PUSH1 0x64 ADD PUSH2 0x53B JUMP JUMPDEST SWAP4 SWAP3 POP POP POP JUMP JUMPDEST PUSH1 0x1 PUSH1 0x1 PUSH1 0xA0 SHL SUB DUP2 AND DUP2 EQ PUSH2 0xE62 JUMPI PUSH1 0x0 DUP1 REVERT JUMPDEST POP JUMP JUMPDEST PUSH1 0x0 PUSH1 0x20 DUP3 DUP5 SUB SLT ISZERO PUSH2 0xE77 JUMPI PUSH1 0x0 DUP1 REVERT JUMPDEST DUP2 CALLDATALOAD PUSH2 0xE46 DUP2 PUSH2 0xE4D JUMP JUMPDEST PUSH1 0x0 PUSH1 0x20 DUP3 DUP5 SUB SLT ISZERO PUSH2 0xE94 JUMPI PUSH1 0x0 DUP1 REVERT JUMPDEST DUP2 CALLDATALOAD PUSH1 0x1 PUSH1 0x1 PUSH1 0xE0 SHL SUB NOT DUP2 AND DUP2 EQ PUSH2 0xE46 JUMPI PUSH1 0x0 DUP1 REVERT JUMPDEST PUSH1 0x0 PUSH1 0x20 DUP3 DUP5 SUB SLT ISZERO PUSH2 0xEBE JUMPI PUSH1 0x0 DUP1 REVERT JUMPDEST POP CALLDATALOAD SWAP2 SWAP1 POP JUMP JUMPDEST DUP1 CALLDATALOAD PUSH1 0x1 PUSH1 0x1 PUSH1 0x80 SHL SUB NOT DUP2 AND DUP2 EQ PUSH2 0xEDD JUMPI PUSH1 0x0 DUP1 REVERT JUMPDEST SWAP2 SWAP1 POP JUMP JUMPDEST PUSH1 0x0 PUSH1 0x20 DUP3 DUP5 SUB SLT ISZERO PUSH2 0xEF4 JUMPI PUSH1 0x0 DUP1 REVERT JUMPDEST PUSH2 0xE46 DUP3 PUSH2 0xEC5 JUMP JUMPDEST PUSH1 0x0 DUP1 PUSH1 0x40 DUP4 DUP6 SUB SLT ISZERO PUSH2 0xF10 JUMPI PUSH1 0x0 DUP1 REVERT JUMPDEST DUP3 CALLDATALOAD SWAP2 POP PUSH1 0x20 DUP4 ADD CALLDATALOAD PUSH2 0xF22 DUP2 PUSH2 0xE4D JUMP JUMPDEST DUP1 SWAP2 POP POP SWAP3 POP SWAP3 SWAP1 POP JUMP JUMPDEST DUP1 CALLDATALOAD PUSH2 0xFFFF DUP2 AND DUP2 EQ PUSH2 0xEDD JUMPI PUSH1 0x0 DUP1 REVERT JUMPDEST DUP1 CALLDATALOAD PUSH4 0xFFFFFFFF DUP2 AND DUP2 EQ PUSH2 0xEDD JUMPI PUSH1 0x0 DUP1 REVERT JUMPDEST PUSH1 0x0 DUP1 PUSH1 0x0 DUP1 PUSH1 0x0 PUSH1 0xA0 DUP7 DUP9 SUB SLT ISZERO PUSH2 0xF6B JUMPI PUSH1 0x0 DUP1 REVERT JUMPDEST PUSH2 0xF74 DUP7 PUSH2 0xEC5 JUMP JUMPDEST SWAP5 POP PUSH1 0x20 DUP7 ADD CALLDATALOAD PUSH2 0xF84 DUP2 PUSH2 0xE4D JUMP JUMPDEST SWAP4 POP PUSH2 0xF92 PUSH1 0x40 DUP8 ADD PUSH2 0xF2D JUMP JUMPDEST SWAP3 POP PUSH2 0xFA0 PUSH1 0x60 DUP8 ADD PUSH2 0xF3F JUMP JUMPDEST SWAP2 POP PUSH2 0xFAE PUSH1 0x80 DUP8 ADD PUSH2 0xF3F JUMP JUMPDEST SWAP1 POP SWAP3 SWAP6 POP SWAP3 SWAP6 SWAP1 SWAP4 POP JUMP JUMPDEST PUSH1 0x0 DUP1 PUSH1 0x0 PUSH1 0x60 DUP5 DUP7 SUB SLT ISZERO PUSH2 0xFCF JUMPI PUSH1 0x0 DUP1 REVERT JUMPDEST PUSH2 0xFD8 DUP5 PUSH2 0xF2D JUMP JUMPDEST SWAP3 POP PUSH2 0xFE6 PUSH1 0x20 DUP6 ADD PUSH2 0xF3F JUMP JUMPDEST SWAP2 POP PUSH2 0xFF4 PUSH1 0x40 DUP6 ADD PUSH2 0xF3F JUMP JUMPDEST SWAP1 POP SWAP3 POP SWAP3 POP SWAP3 JUMP JUMPDEST PUSH4 0x4E487B71 PUSH1 0xE0 SHL PUSH1 0x0 MSTORE PUSH1 0x11 PUSH1 0x4 MSTORE PUSH1 0x24 PUSH1 0x0 REVERT JUMPDEST PUSH1 0x0 PUSH4 0xFFFFFFFF DUP4 DUP2 AND SWAP1 DUP4 AND DUP2 DUP2 LT ISZERO PUSH2 0x1030 JUMPI PUSH2 0x1030 PUSH2 0xFFD JUMP JUMPDEST SUB SWAP4 SWAP3 POP POP POP JUMP JUMPDEST PUSH1 0x0 DUP2 PUSH1 0x0 NOT DIV DUP4 GT DUP3 ISZERO ISZERO AND ISZERO PUSH2 0x1052 JUMPI PUSH2 0x1052 PUSH2 0xFFD JUMP JUMPDEST POP MUL SWAP1 JUMP JUMPDEST PUSH1 0x0 JUMPDEST DUP4 DUP2 LT ISZERO PUSH2 0x1072 JUMPI DUP2 DUP2 ADD MLOAD DUP4 DUP3 ADD MSTORE PUSH1 0x20 ADD PUSH2 0x105A JUMP JUMPDEST DUP4 DUP2 GT ISZERO PUSH2 0x544 JUMPI POP POP PUSH1 0x0 SWAP2 ADD MSTORE JUMP JUMPDEST PUSH32 0x416363657373436F6E74726F6C3A206163636F756E7420000000000000000000 DUP2 MSTORE PUSH1 0x0 DUP4 MLOAD PUSH2 0x10BB DUP2 PUSH1 0x17 DUP6 ADD PUSH1 0x20 DUP9 ADD PUSH2 0x1057 JUMP JUMPDEST PUSH17 0x1034B99036B4B9B9B4B733903937B6329 PUSH1 0x7D SHL PUSH1 0x17 SWAP2 DUP5 ADD SWAP2 DUP3 ADD MSTORE DUP4 MLOAD PUSH2 0x10EC DUP2 PUSH1 0x28 DUP5 ADD PUSH1 0x20 DUP9 ADD PUSH2 0x1057 JUMP JUMPDEST ADD PUSH1 0x28 ADD SWAP5 SWAP4 POP POP POP POP JUMP JUMPDEST PUSH1 0x20 DUP2 MSTORE PUSH1 0x0 DUP3 MLOAD DUP1 PUSH1 0x20 DUP5 ADD MSTORE PUSH2 0x1117 DUP2 PUSH1 0x40 DUP6 ADD PUSH1 0x20 DUP8 ADD PUSH2 0x1057 JUMP JUMPDEST PUSH1 0x1F ADD PUSH1 0x1F NOT AND SWAP2 SWAP1 SWAP2 ADD PUSH1 0x40 ADD SWAP3 SWAP2 POP POP JUMP JUMPDEST PUSH1 0x0 DUP3 NOT DUP3 GT ISZERO PUSH2 0x113E JUMPI PUSH2 0x113E PUSH2 0xFFD JUMP JUMPDEST POP ADD SWAP1 JUMP JUMPDEST PUSH4 0x4E487B71 PUSH1 0xE0 SHL PUSH1 0x0 MSTORE PUSH1 0x41 PUSH1 0x4 MSTORE PUSH1 0x24 PUSH1 0x0 REVERT JUMPDEST PUSH4 0x4E487B71 PUSH1 0xE0 SHL PUSH1 0x0 MSTORE PUSH1 0x32 PUSH1 0x4 MSTORE PUSH1 0x24 PUSH1 0x0 REVERT JUMPDEST PUSH1 0x0 DUP2 PUSH2 0x117E JUMPI PUSH2 0x117E PUSH2 0xFFD JUMP JUMPDEST POP PUSH1 0x0 NOT ADD SWAP1 JUMP INVALID LOG2 PUSH5 0x6970667358 0x22 SLT KECCAK256 CALLDATALOAD SWAP14 0xBF 0x22 0x4E EXTCODESIZE GAS 0xA8 PUSH23 0xC04E113A602CB3A73E30D3A5CC85013F5DA9543719CAA7 PUSH5 0x736F6C6343 STOP ADDMOD EXP STOP CALLER ","sha1":"2a31e7bd47b6887f42b383ae84b4842a5b089e0a","source":"// SPDX-License-Identifier: AGPL-3.0-or-later\n\npragma solidity ^0.8.0;\n\nimport \"@openzeppelin-upgradeable/contracts/access/AccessControlUpgradeable.sol\";\nimport \"@openzeppelin-upgradeable/contracts/proxy/utils/Initializable.sol\";\n\ncontract SubscriptionManager is Initializable, AccessControlUpgradeable {\n\n    bytes32 public constant SET_RATE_ROLE = \n        keccak256(\"Power to set the fee rate\");\n    bytes32 public constant WITHDRAW_ROLE = \n        keccak256(\"Power to withdraw funds from SubscriptionManager\");\n\n    // The layout of policy struct is optimized, so sponsor, timestamps and size\n    // fit in a single 256-word.\n    struct Policy {\n        address payable sponsor;\n        uint32 startTimestamp;\n        uint32 endTimestamp;\n        uint16 size; // also known as `N`\n        // There's still 2 bytes available here\n        address owner;\n    }\n\n    event PolicyCreated(\n        bytes16 indexed policyId,\n        address indexed sponsor,\n        address indexed owner,\n        uint16 size,\n        uint32 startTimestamp,\n        uint32 endTimestamp,\n        uint256 cost\n    );\n\n    event FeeRateUpdated(uint256 oldFeeRate, uint256 newFeeRate);\n\n    // Per-second, per-node service fee rate\n    uint256 public feeRate;\n\n    // Mapping that stores policy structs, keyed by policy ID\n    mapping (bytes16 => Policy) internal _policies;\n\n    function initialize(uint256 _feeRate) public initializer {\n        _setFeeRate(_feeRate);\n        _setupRole(SET_RATE_ROLE, msg.sender);\n        _setupRole(WITHDRAW_ROLE, msg.sender);\n        _setupRole(DEFAULT_ADMIN_ROLE, msg.sender);\n    }\n\n    function getPolicyCost(\n        uint16 _size,\n        uint32 _startTimestamp,\n        uint32 _endTimestamp\n    ) public view returns (uint256){\n        uint32 duration = _endTimestamp - _startTimestamp;\n        require(duration > 0, \"Invalid timestamps\");\n        require(_size > 0, \"Invalid policy size\");\n        return feeRate * _size * duration;\n    }\n\n    function createPolicy(\n        bytes16 _policyId,\n        address _policyOwner,\n        uint16 _size,\n        uint32 _startTimestamp,\n        uint32 _endTimestamp\n    )\n        external payable\n    {\n        require(\n            _startTimestamp < _endTimestamp && block.timestamp < _endTimestamp,\n            \"Invalid timestamps\"\n        );\n        require(\n            msg.value == getPolicyCost(_size, _startTimestamp, _endTimestamp),\n            \"Invalid policy cost\"\n        );\n\n        _createPolicy(_policyId, _policyOwner, _size, _startTimestamp, _endTimestamp);\n    }\n\n    /**\n    * @notice Create policy\n    * @param _policyId Policy id\n    * @param _policyOwner Policy owner. Zero address means sender is owner\n    * @param _size Number of nodes involved in the policy\n    * @param _startTimestamp Start timestamp of the policy in seconds\n    * @param _endTimestamp End timestamp of the policy in seconds\n    */\n    function _createPolicy(\n        bytes16 _policyId,\n        address _policyOwner,\n        uint16 _size,\n        uint32 _startTimestamp,\n        uint32 _endTimestamp\n    )\n        internal returns (Policy storage policy)\n    {\n        policy = _policies[_policyId];\n        require(\n            policy.endTimestamp < block.timestamp,\n            \"Policy is currently active\"\n        );\n\n        policy.sponsor = payable(msg.sender);\n        policy.startTimestamp = _startTimestamp;\n        policy.endTimestamp = _endTimestamp;\n        policy.size = _size;\n\n        if (_policyOwner != msg.sender && _policyOwner != address(0)) {\n            policy.owner = _policyOwner;\n        }\n\n        emit PolicyCreated(\n            _policyId,\n            msg.sender,\n            _policyOwner == address(0) ? msg.sender : _policyOwner,\n            _size,\n            _startTimestamp,\n            _endTimestamp,\n            msg.value\n        );\n    }\n\n    function getPolicy(bytes16 _policyID) public view returns(Policy memory){\n        return _policies[_policyID];\n    }\n\n    function isPolicyActive(bytes16 _policyID) public view returns(bool){\n        return _policies[_policyID].endTimestamp > block.timestamp;\n    }\n\n    function _setFeeRate(uint256 newFee) internal {\n        uint256 oldFee = feeRate;\n        feeRate = newFee;\n        emit FeeRateUpdated(oldFee, newFee);\n    }\n\n    function setFeeRate(uint256 _ratePerSecond) onlyRole(SET_RATE_ROLE) external {\n        _setFeeRate(_ratePerSecond);\n    }\n\n    function sweep(address payable recipient) onlyRole(WITHDRAW_ROLE) external {\n        uint256 balance = address(this).balance;\n        (bool sent, ) = recipient.call{value: balance}(\"\");\n        require(sent, \"Failed transfer\");\n    }\n\n}\n","sourcePath":"contracts/matic/SubscriptionManager.sol","type":"contract","deployment":{"address":"0x83283D9120a8e2494d735C681Ad9f53c20a34522","chainid":"137","blockHeight":25163484}}