{
  "abi": [
    {
      "inputs": [],
      "stateMutability": "nonpayable",
      "type": "constructor"
    },
    {
      "anonymous": false,
      "inputs": [
        {
          "indexed": true,
          "internalType": "bytes16",
          "name": "policyId",
          "type": "bytes16"
        },
        {
          "indexed": true,
          "internalType": "address",
          "name": "sponsor",
          "type": "address"
        },
        {
          "indexed": true,
          "internalType": "address",
          "name": "owner",
          "type": "address"
        },
        {
          "indexed": false,
          "internalType": "uint64",
          "name": "startTimestamp",
          "type": "uint64"
        },
        {
          "indexed": false,
          "internalType": "uint64",
          "name": "endTimestamp",
          "type": "uint64"
        }
      ],
      "name": "PolicyCreated",
      "type": "event"
    },
    {
      "inputs": [],
      "name": "RATE_PER_SECOND",
      "outputs": [
        {
          "internalType": "uint256",
          "name": "",
          "type": "uint256"
        }
      ],
      "stateMutability": "view",
      "type": "function"
    },
    {
      "inputs": [
        {
          "internalType": "bytes16",
          "name": "_policyId",
          "type": "bytes16"
        },
        {
          "internalType": "address",
          "name": "_policyOwner",
          "type": "address"
        },
        {
          "internalType": "uint64",
          "name": "_startTimestamp",
          "type": "uint64"
        },
        {
          "internalType": "uint64",
          "name": "_endTimestamp",
          "type": "uint64"
        }
      ],
      "name": "createPolicy",
      "outputs": [],
      "stateMutability": "payable",
      "type": "function"
    },
    {
      "inputs": [
        {
          "internalType": "bytes16",
          "name": "_policyID",
          "type": "bytes16"
        }
      ],
      "name": "isPolicyActive",
      "outputs": [
        {
          "internalType": "bool",
          "name": "",
          "type": "bool"
        }
      ],
      "stateMutability": "view",
      "type": "function"
    },
    {
      "inputs": [],
      "name": "owner",
      "outputs": [
        {
          "internalType": "address payable",
          "name": "",
          "type": "address"
        }
      ],
      "stateMutability": "view",
      "type": "function"
    },
    {
      "inputs": [
        {
          "internalType": "bytes16",
          "name": "",
          "type": "bytes16"
        }
      ],
      "name": "policies",
      "outputs": [
        {
          "internalType": "address payable",
          "name": "sponsor",
          "type": "address"
        },
        {
          "internalType": "address",
          "name": "owner",
          "type": "address"
        },
        {
          "internalType": "uint64",
          "name": "startTimestamp",
          "type": "uint64"
        },
        {
          "internalType": "uint64",
          "name": "endTimestamp",
          "type": "uint64"
        }
      ],
      "stateMutability": "view",
      "type": "function"
    },
    {
      "inputs": [
        {
          "internalType": "address payable",
          "name": "recipient",
          "type": "address"
        }
      ],
      "name": "sweep",
      "outputs": [],
      "stateMutability": "nonpayable",
      "type": "function"
    }
  ],
  "bytecode": "608060405234801561001057600080fd5b50600080546001600160a01b031916331790556106a4806100326000396000f3fe6080604052600436106100555760003560e01c806301681a621461005a5780634d164f611461007c5780635193de9c146100a4578063713c0e57146100b75780637ef3c6d51461014f5780638da5cb5b146101a6575b600080fd5b34801561006657600080fd5b5061007a610075366004610526565b6101de565b005b34801561008857600080fd5b50610091610294565b6040519081526020015b60405180910390f35b61007a6100b236600461057e565b6102a9565b3480156100c357600080fd5b506101156100d23660046105d4565b60016020819052600091825260409091208054918101546002909101546001600160a01b03928316928216916001600160401b03600160a01b9091048116911684565b604080516001600160a01b0395861681529490931660208501526001600160401b039182169284019290925216606082015260800161009b565b34801561015b57600080fd5b5061019661016a3660046105d4565b6001600160801b031916600090815260016020526040902060020154426001600160401b039091161190565b604051901515815260200161009b565b3480156101b257600080fd5b506000546101c6906001600160a01b031681565b6040516001600160a01b03909116815260200161009b565b6000546001600160a01b031633146101f557600080fd5b60405147906000906001600160a01b0384169083908381818185875af1925050503d8060008114610242576040519150601f19603f3d011682016040523d82523d6000602084013e610247565b606091505b505090508061028f5760405162461bcd60e51b815260206004820152600f60248201526e2330b4b632b2103a3930b739b332b960891b60448201526064015b60405180910390fd5b505050565b6102a662015180640ba43b7400610605565b81565b806001600160401b0316826001600160401b03161080156102d25750806001600160401b031642105b6103135760405162461bcd60e51b8152602060048201526012602482015271496e76616c69642074696d657374616d707360701b6044820152606401610286565b600061031f8383610627565b90506000816001600160401b031611801561035e57506001600160401b03811661035162015180640ba43b7400610605565b61035b919061064f565b34145b61036757600080fd5b6103738585858561037b565b505050505050565b6001600160801b0319841660009081526001602052604090206002810154426001600160401b03909116106103f25760405162461bcd60e51b815260206004820152601a60248201527f506f6c6963792069732063757272656e746c79206163746976650000000000006044820152606401610286565b80546001600160a01b0319163390811782556001820180546001600160401b03808716600160a01b0267ffffffffffffffff60a01b199092169190911790915560028301805491851667ffffffffffffffff199092169190911790556001600160a01b0385161480159061046e57506001600160a01b03841615155b15610491576001810180546001600160a01b0319166001600160a01b0386161790555b6001600160a01b038416156104a657836104a8565b335b604080516001600160401b038087168252851660208201526001600160a01b03929092169133916001600160801b03198916917fdf690468dd0cdb13875078e35d821b9459a7e0e4b5bafb1b76ad3930db25bba3910160405180910390a4949350505050565b6001600160a01b038116811461052357600080fd5b50565b60006020828403121561053857600080fd5b81356105438161050e565b9392505050565b80356001600160801b03198116811461056257600080fd5b919050565b80356001600160401b038116811461056257600080fd5b6000806000806080858703121561059457600080fd5b61059d8561054a565b935060208501356105ad8161050e565b92506105bb60408601610567565b91506105c960608601610567565b905092959194509250565b6000602082840312156105e657600080fd5b6105438261054a565b634e487b7160e01b600052601160045260246000fd5b60008261062257634e487b7160e01b600052601260045260246000fd5b500490565b60006001600160401b0383811690831681811015610647576106476105ef565b039392505050565b6000816000190483118215151615610669576106696105ef565b50029056fea2646970667358221220c82e476bc269dccddf246e2675be8ae39494add5b451020eb9872bed4469bf3364736f6c634300080a0033",
  "bytecodeSha1": "ea33714f3de876fdb2a52d6824c3ce1238a3ca62",
  "compiler": {
    "evm_version": "istanbul",
    "optimizer": {
      "enabled": true,
      "runs": 200
    },
    "version": "0.8.10+commit.fc410830"
  },
  "contractName": "SubscriptionManager",
  "language": "Solidity",
  "natspec": {
    "kind": "dev",
    "methods": {},
    "version": 1
  },
  "opcodes": "PUSH1 0x80 PUSH1 0x40 MSTORE PUSH1 0x4 CALLDATASIZE LT PUSH2 0x55 JUMPI PUSH1 0x0 CALLDATALOAD PUSH1 0xE0 SHR DUP1 PUSH4 0x1681A62 EQ PUSH2 0x5A JUMPI DUP1 PUSH4 0x4D164F61 EQ PUSH2 0x7C JUMPI DUP1 PUSH4 0x5193DE9C EQ PUSH2 0xA4 JUMPI DUP1 PUSH4 0x713C0E57 EQ PUSH2 0xB7 JUMPI DUP1 PUSH4 0x7EF3C6D5 EQ PUSH2 0x14F JUMPI DUP1 PUSH4 0x8DA5CB5B EQ PUSH2 0x1A6 JUMPI JUMPDEST PUSH1 0x0 DUP1 REVERT JUMPDEST CALLVALUE DUP1 ISZERO PUSH2 0x66 JUMPI PUSH1 0x0 DUP1 REVERT JUMPDEST POP PUSH2 0x7A PUSH2 0x75 CALLDATASIZE PUSH1 0x4 PUSH2 0x526 JUMP JUMPDEST PUSH2 0x1DE JUMP JUMPDEST STOP JUMPDEST CALLVALUE DUP1 ISZERO PUSH2 0x88 JUMPI PUSH1 0x0 DUP1 REVERT JUMPDEST POP PUSH2 0x91 PUSH2 0x294 JUMP JUMPDEST PUSH1 0x40 MLOAD SWAP1 DUP2 MSTORE PUSH1 0x20 ADD JUMPDEST PUSH1 0x40 MLOAD DUP1 SWAP2 SUB SWAP1 RETURN JUMPDEST PUSH2 0x7A PUSH2 0xB2 CALLDATASIZE PUSH1 0x4 PUSH2 0x57E JUMP JUMPDEST PUSH2 0x2A9 JUMP JUMPDEST CALLVALUE DUP1 ISZERO PUSH2 0xC3 JUMPI PUSH1 0x0 DUP1 REVERT JUMPDEST POP PUSH2 0x115 PUSH2 0xD2 CALLDATASIZE PUSH1 0x4 PUSH2 0x5D4 JUMP JUMPDEST PUSH1 0x1 PUSH1 0x20 DUP2 SWAP1 MSTORE PUSH1 0x0 SWAP2 DUP3 MSTORE PUSH1 0x40 SWAP1 SWAP2 KECCAK256 DUP1 SLOAD SWAP2 DUP2 ADD SLOAD PUSH1 0x2 SWAP1 SWAP2 ADD SLOAD PUSH1 0x1 PUSH1 0x1 PUSH1 0xA0 SHL SUB SWAP3 DUP4 AND SWAP3 DUP3 AND SWAP2 PUSH1 0x1 PUSH1 0x1 PUSH1 0x40 SHL SUB PUSH1 0x1 PUSH1 0xA0 SHL SWAP1 SWAP2 DIV DUP2 AND SWAP2 AND DUP5 JUMP JUMPDEST PUSH1 0x40 DUP1 MLOAD PUSH1 0x1 PUSH1 0x1 PUSH1 0xA0 SHL SUB SWAP6 DUP7 AND DUP2 MSTORE SWAP5 SWAP1 SWAP4 AND PUSH1 0x20 DUP6 ADD MSTORE PUSH1 0x1 PUSH1 0x1 PUSH1 0x40 SHL SUB SWAP2 DUP3 AND SWAP3 DUP5 ADD SWAP3 SWAP1 SWAP3 MSTORE AND PUSH1 0x60 DUP3 ADD MSTORE PUSH1 0x80 ADD PUSH2 0x9B JUMP JUMPDEST CALLVALUE DUP1 ISZERO PUSH2 0x15B JUMPI PUSH1 0x0 DUP1 REVERT JUMPDEST POP PUSH2 0x196 PUSH2 0x16A CALLDATASIZE PUSH1 0x4 PUSH2 0x5D4 JUMP JUMPDEST PUSH1 0x1 PUSH1 0x1 PUSH1 0x80 SHL SUB NOT AND PUSH1 0x0 SWAP1 DUP2 MSTORE PUSH1 0x1 PUSH1 0x20 MSTORE PUSH1 0x40 SWAP1 KECCAK256 PUSH1 0x2 ADD SLOAD TIMESTAMP PUSH1 0x1 PUSH1 0x1 PUSH1 0x40 SHL SUB SWAP1 SWAP2 AND GT SWAP1 JUMP JUMPDEST PUSH1 0x40 MLOAD SWAP1 ISZERO ISZERO DUP2 MSTORE PUSH1 0x20 ADD PUSH2 0x9B JUMP JUMPDEST CALLVALUE DUP1 ISZERO PUSH2 0x1B2 JUMPI PUSH1 0x0 DUP1 REVERT JUMPDEST POP PUSH1 0x0 SLOAD PUSH2 0x1C6 SWAP1 PUSH1 0x1 PUSH1 0x1 PUSH1 0xA0 SHL SUB AND DUP2 JUMP JUMPDEST PUSH1 0x40 MLOAD PUSH1 0x1 PUSH1 0x1 PUSH1 0xA0 SHL SUB SWAP1 SWAP2 AND DUP2 MSTORE PUSH1 0x20 ADD PUSH2 0x9B JUMP JUMPDEST PUSH1 0x0 SLOAD PUSH1 0x1 PUSH1 0x1 PUSH1 0xA0 SHL SUB AND CALLER EQ PUSH2 0x1F5 JUMPI PUSH1 0x0 DUP1 REVERT JUMPDEST PUSH1 0x40 MLOAD SELFBALANCE SWAP1 PUSH1 0x0 SWAP1 PUSH1 0x1 PUSH1 0x1 PUSH1 0xA0 SHL SUB DUP5 AND SWAP1 DUP4 SWAP1 DUP4 DUP2 DUP2 DUP2 DUP6 DUP8 GAS CALL SWAP3 POP POP POP RETURNDATASIZE DUP1 PUSH1 0x0 DUP2 EQ PUSH2 0x242 JUMPI PUSH1 0x40 MLOAD SWAP2 POP PUSH1 0x1F NOT PUSH1 0x3F RETURNDATASIZE ADD AND DUP3 ADD PUSH1 0x40 MSTORE RETURNDATASIZE DUP3 MSTORE RETURNDATASIZE PUSH1 0x0 PUSH1 0x20 DUP5 ADD RETURNDATACOPY PUSH2 0x247 JUMP JUMPDEST PUSH1 0x60 SWAP2 POP JUMPDEST POP POP SWAP1 POP DUP1 PUSH2 0x28F JUMPI PUSH1 0x40 MLOAD PUSH3 0x461BCD PUSH1 0xE5 SHL DUP2 MSTORE PUSH1 0x20 PUSH1 0x4 DUP3 ADD MSTORE PUSH1 0xF PUSH1 0x24 DUP3 ADD MSTORE PUSH15 0x2330B4B632B2103A3930B739B332B9 PUSH1 0x89 SHL PUSH1 0x44 DUP3 ADD MSTORE PUSH1 0x64 ADD JUMPDEST PUSH1 0x40 MLOAD DUP1 SWAP2 SUB SWAP1 REVERT JUMPDEST POP POP POP JUMP JUMPDEST PUSH2 0x2A6 PUSH3 0x15180 PUSH5 0xBA43B7400 PUSH2 0x605 JUMP JUMPDEST DUP2 JUMP JUMPDEST DUP1 PUSH1 0x1 PUSH1 0x1 PUSH1 0x40 SHL SUB AND DUP3 PUSH1 0x1 PUSH1 0x1 PUSH1 0x40 SHL SUB AND LT DUP1 ISZERO PUSH2 0x2D2 JUMPI POP DUP1 PUSH1 0x1 PUSH1 0x1 PUSH1 0x40 SHL SUB AND TIMESTAMP LT JUMPDEST PUSH2 0x313 JUMPI PUSH1 0x40 MLOAD PUSH3 0x461BCD PUSH1 0xE5 SHL DUP2 MSTORE PUSH1 0x20 PUSH1 0x4 DUP3 ADD MSTORE PUSH1 0x12 PUSH1 0x24 DUP3 ADD MSTORE PUSH18 0x496E76616C69642074696D657374616D7073 PUSH1 0x70 SHL PUSH1 0x44 DUP3 ADD MSTORE PUSH1 0x64 ADD PUSH2 0x286 JUMP JUMPDEST PUSH1 0x0 PUSH2 0x31F DUP4 DUP4 PUSH2 0x627 JUMP JUMPDEST SWAP1 POP PUSH1 0x0 DUP2 PUSH1 0x1 PUSH1 0x1 PUSH1 0x40 SHL SUB AND GT DUP1 ISZERO PUSH2 0x35E JUMPI POP PUSH1 0x1 PUSH1 0x1 PUSH1 0x40 SHL SUB DUP2 AND PUSH2 0x351 PUSH3 0x15180 PUSH5 0xBA43B7400 PUSH2 0x605 JUMP JUMPDEST PUSH2 0x35B SWAP2 SWAP1 PUSH2 0x64F JUMP JUMPDEST CALLVALUE EQ JUMPDEST PUSH2 0x367 JUMPI PUSH1 0x0 DUP1 REVERT JUMPDEST PUSH2 0x373 DUP6 DUP6 DUP6 DUP6 PUSH2 0x37B JUMP JUMPDEST POP POP POP POP POP POP JUMP JUMPDEST PUSH1 0x1 PUSH1 0x1 PUSH1 0x80 SHL SUB NOT DUP5 AND PUSH1 0x0 SWAP1 DUP2 MSTORE PUSH1 0x1 PUSH1 0x20 MSTORE PUSH1 0x40 SWAP1 KECCAK256 PUSH1 0x2 DUP2 ADD SLOAD TIMESTAMP PUSH1 0x1 PUSH1 0x1 PUSH1 0x40 SHL SUB SWAP1 SWAP2 AND LT PUSH2 0x3F2 JUMPI PUSH1 0x40 MLOAD PUSH3 0x461BCD PUSH1 0xE5 SHL DUP2 MSTORE PUSH1 0x20 PUSH1 0x4 DUP3 ADD MSTORE PUSH1 0x1A PUSH1 0x24 DUP3 ADD MSTORE PUSH32 0x506F6C6963792069732063757272656E746C7920616374697665000000000000 PUSH1 0x44 DUP3 ADD MSTORE PUSH1 0x64 ADD PUSH2 0x286 JUMP JUMPDEST DUP1 SLOAD PUSH1 0x1 PUSH1 0x1 PUSH1 0xA0 SHL SUB NOT AND CALLER SWAP1 DUP2 OR DUP3 SSTORE PUSH1 0x1 DUP3 ADD DUP1 SLOAD PUSH1 0x1 PUSH1 0x1 PUSH1 0x40 SHL SUB DUP1 DUP8 AND PUSH1 0x1 PUSH1 0xA0 SHL MUL PUSH8 0xFFFFFFFFFFFFFFFF PUSH1 0xA0 SHL NOT SWAP1 SWAP3 AND SWAP2 SWAP1 SWAP2 OR SWAP1 SWAP2 SSTORE PUSH1 0x2 DUP4 ADD DUP1 SLOAD SWAP2 DUP6 AND PUSH8 0xFFFFFFFFFFFFFFFF NOT SWAP1 SWAP3 AND SWAP2 SWAP1 SWAP2 OR SWAP1 SSTORE PUSH1 0x1 PUSH1 0x1 PUSH1 0xA0 SHL SUB DUP6 AND EQ DUP1 ISZERO SWAP1 PUSH2 0x46E JUMPI POP PUSH1 0x1 PUSH1 0x1 PUSH1 0xA0 SHL SUB DUP5 AND ISZERO ISZERO JUMPDEST ISZERO PUSH2 0x491 JUMPI PUSH1 0x1 DUP2 ADD DUP1 SLOAD PUSH1 0x1 PUSH1 0x1 PUSH1 0xA0 SHL SUB NOT AND PUSH1 0x1 PUSH1 0x1 PUSH1 0xA0 SHL SUB DUP7 AND OR SWAP1 SSTORE JUMPDEST PUSH1 0x1 PUSH1 0x1 PUSH1 0xA0 SHL SUB DUP5 AND ISZERO PUSH2 0x4A6 JUMPI DUP4 PUSH2 0x4A8 JUMP JUMPDEST CALLER JUMPDEST PUSH1 0x40 DUP1 MLOAD PUSH1 0x1 PUSH1 0x1 PUSH1 0x40 SHL SUB DUP1 DUP8 AND DUP3 MSTORE DUP6 AND PUSH1 0x20 DUP3 ADD MSTORE PUSH1 0x1 PUSH1 0x1 PUSH1 0xA0 SHL SUB SWAP3 SWAP1 SWAP3 AND SWAP2 CALLER SWAP2 PUSH1 0x1 PUSH1 0x1 PUSH1 0x80 SHL SUB NOT DUP10 AND SWAP2 PUSH32 0xDF690468DD0CDB13875078E35D821B9459A7E0E4B5BAFB1B76AD3930DB25BBA3 SWAP2 ADD PUSH1 0x40 MLOAD DUP1 SWAP2 SUB SWAP1 LOG4 SWAP5 SWAP4 POP POP POP POP JUMP JUMPDEST PUSH1 0x1 PUSH1 0x1 PUSH1 0xA0 SHL SUB DUP2 AND DUP2 EQ PUSH2 0x523 JUMPI PUSH1 0x0 DUP1 REVERT JUMPDEST POP JUMP JUMPDEST PUSH1 0x0 PUSH1 0x20 DUP3 DUP5 SUB SLT ISZERO PUSH2 0x538 JUMPI PUSH1 0x0 DUP1 REVERT JUMPDEST DUP2 CALLDATALOAD PUSH2 0x543 DUP2 PUSH2 0x50E JUMP JUMPDEST SWAP4 SWAP3 POP POP POP JUMP JUMPDEST DUP1 CALLDATALOAD PUSH1 0x1 PUSH1 0x1 PUSH1 0x80 SHL SUB NOT DUP2 AND DUP2 EQ PUSH2 0x562 JUMPI PUSH1 0x0 DUP1 REVERT JUMPDEST SWAP2 SWAP1 POP JUMP JUMPDEST DUP1 CALLDATALOAD PUSH1 0x1 PUSH1 0x1 PUSH1 0x40 SHL SUB DUP2 AND DUP2 EQ PUSH2 0x562 JUMPI PUSH1 0x0 DUP1 REVERT JUMPDEST PUSH1 0x0 DUP1 PUSH1 0x0 DUP1 PUSH1 0x80 DUP6 DUP8 SUB SLT ISZERO PUSH2 0x594 JUMPI PUSH1 0x0 DUP1 REVERT JUMPDEST PUSH2 0x59D DUP6 PUSH2 0x54A JUMP JUMPDEST SWAP4 POP PUSH1 0x20 DUP6 ADD CALLDATALOAD PUSH2 0x5AD DUP2 PUSH2 0x50E JUMP JUMPDEST SWAP3 POP PUSH2 0x5BB PUSH1 0x40 DUP7 ADD PUSH2 0x567 JUMP JUMPDEST SWAP2 POP PUSH2 0x5C9 PUSH1 0x60 DUP7 ADD PUSH2 0x567 JUMP JUMPDEST SWAP1 POP SWAP3 SWAP6 SWAP2 SWAP5 POP SWAP3 POP JUMP JUMPDEST PUSH1 0x0 PUSH1 0x20 DUP3 DUP5 SUB SLT ISZERO PUSH2 0x5E6 JUMPI PUSH1 0x0 DUP1 REVERT JUMPDEST PUSH2 0x543 DUP3 PUSH2 0x54A JUMP JUMPDEST PUSH4 0x4E487B71 PUSH1 0xE0 SHL PUSH1 0x0 MSTORE PUSH1 0x11 PUSH1 0x4 MSTORE PUSH1 0x24 PUSH1 0x0 REVERT JUMPDEST PUSH1 0x0 DUP3 PUSH2 0x622 JUMPI PUSH4 0x4E487B71 PUSH1 0xE0 SHL PUSH1 0x0 MSTORE PUSH1 0x12 PUSH1 0x4 MSTORE PUSH1 0x24 PUSH1 0x0 REVERT JUMPDEST POP DIV SWAP1 JUMP JUMPDEST PUSH1 0x0 PUSH1 0x1 PUSH1 0x1 PUSH1 0x40 SHL SUB DUP4 DUP2 AND SWAP1 DUP4 AND DUP2 DUP2 LT ISZERO PUSH2 0x647 JUMPI PUSH2 0x647 PUSH2 0x5EF JUMP JUMPDEST SUB SWAP4 SWAP3 POP POP POP JUMP JUMPDEST PUSH1 0x0 DUP2 PUSH1 0x0 NOT DIV DUP4 GT DUP3 ISZERO ISZERO AND ISZERO PUSH2 0x669 JUMPI PUSH2 0x669 PUSH2 0x5EF JUMP JUMPDEST POP MUL SWAP1 JUMP INVALID LOG2 PUSH5 0x6970667358 0x22 SLT KECCAK256 0xC8 0x2E SELFBALANCE PUSH12 0xC269DCCDDF246E2675BE8AE3 SWAP5 SWAP5 0xAD 0xD5 0xB4 MLOAD MUL 0xE 0xB9 DUP8 0x2B 0xED DIFFICULTY PUSH10 0xBF3364736F6C63430008 EXP STOP CALLER ",
  "sha1": "88e2c20882129287dfcd6513c3464510bc0dd8de",
  "source": "// SPDX-License-Identifier: AGPL-3.0-or-later\n\npragma solidity ^0.8.0;\n\ncontract SubscriptionManager {\n\n    uint256 private constant RATE_PER_DAY = 50 gwei;\n    uint256 public constant RATE_PER_SECOND = RATE_PER_DAY / 1 days;\n\n    struct Policy { // TODO: Optimize struct layout\n        address payable sponsor;\n        address owner;\n        uint64 startTimestamp;\n        uint64 endTimestamp;\n    }\n\n    event PolicyCreated(\n        bytes16 indexed policyId,\n        address indexed sponsor,\n        address indexed owner,\n        uint64 startTimestamp,\n        uint64 endTimestamp\n    );\n    \n    address payable public owner;\n    mapping (bytes16 => Policy) public policies;\n\n    constructor(){\n        owner = payable(msg.sender);\n    }\n\n    function createPolicy(\n        bytes16 _policyId,\n        address _policyOwner,\n        uint64 _startTimestamp,\n        uint64 _endTimestamp\n    )\n        external payable\n    {\n        require(\n            _startTimestamp < _endTimestamp &&\n            block.timestamp < _endTimestamp,\n            \"Invalid timestamps\"\n        );\n        uint64 duration = _endTimestamp - _startTimestamp;\n        require(\n            duration > 0 &&\n            msg.value == RATE_PER_SECOND * uint64(duration)\n        );\n        //Policy storage policy = \n        _createPolicy(_policyId, _policyOwner, _startTimestamp, _endTimestamp);\n    }\n\n    /**\n    * @notice Create policy\n    * @param _policyId Policy id\n    * @param _policyOwner Policy owner. Zero address means sender is owner\n    * @param _startTimestamp Start timestamp of the policy in seconds\n    * @param _endTimestamp End timestamp of the policy in seconds\n    */\n    function _createPolicy(\n        bytes16 _policyId,\n        address _policyOwner,\n        uint64 _startTimestamp,\n        uint64 _endTimestamp\n    )\n        internal returns (Policy storage policy)\n    {\n        policy = policies[_policyId];\n        require(\n            policy.endTimestamp < block.timestamp,\n            \"Policy is currently active\"\n        );\n\n        policy.sponsor = payable(msg.sender);\n        policy.startTimestamp = _startTimestamp;\n        policy.endTimestamp = _endTimestamp;\n\n        if (_policyOwner != msg.sender && _policyOwner != address(0)) {\n            policy.owner = _policyOwner;\n        }\n\n        emit PolicyCreated(\n            _policyId,\n            msg.sender,\n            _policyOwner == address(0) ? msg.sender : _policyOwner,\n            _startTimestamp,\n            _endTimestamp\n        );\n    }\n\n    function isPolicyActive(bytes16 _policyID) public view returns(bool){\n        return policies[_policyID].endTimestamp > block.timestamp;\n    }\n\n    function sweep(address payable recipient) external {\n        require(msg.sender == owner);\n        uint256 balance = address(this).balance;\n        (bool sent, ) = recipient.call{value: balance}(\"\");\n        require(sent, \"Failed transfer\");\n    }\n\n}",
  "sourcePath": "contracts/SubscriptionManager.sol",
  "type": "contract"
}